
ecg.elf:     file format elf32-avr

Sections:
Idx Name          Size      VMA       LMA       File off  Algn
  0 .text         00000156  00000000  00000000  00000074  2**1
                  CONTENTS, ALLOC, LOAD, READONLY, CODE
  1 .data         00000008  00800060  00000156  000001ca  2**0
                  CONTENTS, ALLOC, LOAD, DATA
  2 .comment      00000030  00000000  00000000  000001d2  2**0
                  CONTENTS, READONLY
  3 .debug_aranges 00000038  00000000  00000000  00000202  2**0
                  CONTENTS, READONLY, DEBUGGING
  4 .debug_info   00000198  00000000  00000000  0000023a  2**0
                  CONTENTS, READONLY, DEBUGGING
  5 .debug_abbrev 00000118  00000000  00000000  000003d2  2**0
                  CONTENTS, READONLY, DEBUGGING
  6 .debug_line   00000122  00000000  00000000  000004ea  2**0
                  CONTENTS, READONLY, DEBUGGING
  7 .debug_frame  00000078  00000000  00000000  0000060c  2**2
                  CONTENTS, READONLY, DEBUGGING
  8 .debug_str    00000175  00000000  00000000  00000684  2**0
                  CONTENTS, READONLY, DEBUGGING
  9 .debug_loc    0000015f  00000000  00000000  000007f9  2**0
                  CONTENTS, READONLY, DEBUGGING
 10 .debug_ranges 00000028  00000000  00000000  00000958  2**0
                  CONTENTS, READONLY, DEBUGGING

Disassembly of section .text:

00000000 <__vectors>:
   0:	09 c0       	rjmp	.+18     	; 0x14 <__ctors_end>
   2:	19 c0       	rjmp	.+50     	; 0x36 <__bad_interrupt>
   4:	18 c0       	rjmp	.+48     	; 0x36 <__bad_interrupt>
   6:	17 c0       	rjmp	.+46     	; 0x36 <__bad_interrupt>
   8:	16 c0       	rjmp	.+44     	; 0x36 <__bad_interrupt>
   a:	15 c0       	rjmp	.+42     	; 0x36 <__bad_interrupt>
   c:	14 c0       	rjmp	.+40     	; 0x36 <__bad_interrupt>
   e:	13 c0       	rjmp	.+38     	; 0x36 <__bad_interrupt>
  10:	12 c0       	rjmp	.+36     	; 0x36 <__bad_interrupt>
  12:	12 c0       	rjmp	.+36     	; 0x38 <__vector_9>

00000014 <__ctors_end>:
  14:	11 24       	eor	r1, r1
  16:	1f be       	out	0x3f, r1	; 63
  18:	cf e9       	ldi	r28, 0x9F	; 159
  1a:	cd bf       	out	0x3d, r28	; 61

0000001c <__do_copy_data>:
  1c:	10 e0       	ldi	r17, 0x00	; 0
  1e:	a0 e6       	ldi	r26, 0x60	; 96
  20:	b0 e0       	ldi	r27, 0x00	; 0
  22:	e6 e5       	ldi	r30, 0x56	; 86
  24:	f1 e0       	ldi	r31, 0x01	; 1
  26:	02 c0       	rjmp	.+4      	; 0x2c <__do_copy_data+0x10>
  28:	05 90       	lpm	r0, Z+
  2a:	0d 92       	st	X+, r0
  2c:	a8 36       	cpi	r26, 0x68	; 104
  2e:	b1 07       	cpc	r27, r17
  30:	d9 f7       	brne	.-10     	; 0x28 <__do_copy_data+0xc>
  32:	6d d0       	rcall	.+218    	; 0x10e <main>
  34:	8e c0       	rjmp	.+284    	; 0x152 <_exit>

00000036 <__bad_interrupt>:
  36:	e4 cf       	rjmp	.-56     	; 0x0 <__vectors>

00000038 <__vector_9>:
register uint16_t result asm("r4");
register uint8_t sample_num asm("r6");
register uint8_t new_data asm("r7");


ISR(ADC_vect) { // ISR interrupt at 8 kHz x 47 cycles ~ 380 kIPS
  38:	1f 92       	push	r1
  3a:	0f 92       	push	r0
  3c:	0f b6       	in	r0, 0x3f	; 63
  3e:	0f 92       	push	r0
  40:	11 24       	eor	r1, r1
  42:	8f 93       	push	r24
  44:	9f 93       	push	r25
	
	// ADC is triggered on Compare Match A
	// clear the timer compare match flag
	TIFR0 = _BV(OCF0A);
  46:	84 e0       	ldi	r24, 0x04	; 4
  48:	88 bf       	out	0x38, r24	; 56
	
	// accumulate samples values
	acc += ADCW;
  4a:	84 b1       	in	r24, 0x04	; 4
  4c:	95 b1       	in	r25, 0x05	; 5
  4e:	28 0e       	add	r2, r24
  50:	39 1e       	adc	r3, r25
	sample_num++;
  52:	81 e0       	ldi	r24, 0x01	; 1
  54:	86 0d       	add	r24, r6
  56:	68 2e       	mov	r6, r24
	
	if( !(sample_num % NAVG) ) {
  58:	8f 70       	andi	r24, 0x0F	; 15
  5a:	29 f4       	brne	.+10     	; 0x66 <__SREG__+0x27>
		// result is ready
		result = acc / NDIV;		
  5c:	21 01       	movw	r4, r2
		new_data = True;
  5e:	77 24       	eor	r7, r7
  60:	73 94       	inc	r7
		acc = 0; // zero the accumulator for the next cycle			
  62:	21 2c       	mov	r2, r1
  64:	31 2c       	mov	r3, r1
	}	
}
  66:	9f 91       	pop	r25
  68:	8f 91       	pop	r24
  6a:	0f 90       	pop	r0
  6c:	0f be       	out	0x3f, r0	; 63
  6e:	0f 90       	pop	r0
  70:	1f 90       	pop	r1
  72:	18 95       	reti

00000074 <uart_send_byte>:

void uart_send_byte(uint8_t b) {
  74:	cf 93       	push	r28
  76:	df 93       	push	r29
  78:	cd b7       	in	r28, 0x3d	; 61
  7a:	dd 27       	eor	r29, r29
  7c:	c8 50       	subi	r28, 0x08	; 8
  7e:	cd bf       	out	0x3d, r28	; 61
	uint8_t mask[] = {0x01, 0x02, 0x04, 0x08, 0x10, 0x20, 0x40, 0x80};
  80:	98 e0       	ldi	r25, 0x08	; 8
  82:	e0 e6       	ldi	r30, 0x60	; 96
  84:	f0 e0       	ldi	r31, 0x00	; 0
  86:	de 01       	movw	r26, r28
  88:	11 96       	adiw	r26, 0x01	; 1
  8a:	01 90       	ld	r0, Z+
  8c:	0d 92       	st	X+, r0
  8e:	9a 95       	dec	r25
  90:	e1 f7       	brne	.-8      	; 0x8a <uart_send_byte+0x16>
	uint8_t i;
	uint16_t u16;
	
	UART_TX_PORT |= _BV(UART_TX_PIN); // start bit, UART space
  92:	c0 9a       	sbi	0x18, 0	; 24
	DELAY(u16, UART_BIT_DELAY);	
  94:	27 e8       	ldi	r18, 0x87	; 135
  96:	30 e0       	ldi	r19, 0x00	; 0
  98:	21 50       	subi	r18, 0x01	; 1
  9a:	31 09       	sbc	r19, r1
  9c:	21 15       	cp	r18, r1
  9e:	31 05       	cpc	r19, r1
  a0:	d9 f7       	brne	.-10     	; 0x98 <uart_send_byte+0x24>
  a2:	fe 01       	movw	r30, r28
  a4:	31 96       	adiw	r30, 0x01	; 1
  a6:	ae 01       	movw	r20, r28
  a8:	47 5f       	subi	r20, 0xF7	; 247
  aa:	5f 4f       	sbci	r21, 0xFF	; 255
		}
		else {
			UART_TX_PORT |= _BV(UART_TX_PIN); // UART space
		}
		
		DELAY(u16, UART_BIT_DELAY);		
  ac:	77 e8       	ldi	r23, 0x87	; 135
  ae:	60 e0       	ldi	r22, 0x00	; 0
	
	UART_TX_PORT |= _BV(UART_TX_PIN); // start bit, UART space
	DELAY(u16, UART_BIT_DELAY);	

	for(i=0; i<8; i++) { // send data bits
		if(b & mask[i]) {
  b0:	91 91       	ld	r25, Z+
  b2:	98 23       	and	r25, r24
  b4:	11 f0       	breq	.+4      	; 0xba <__stack+0x1b>
			UART_TX_PORT &= ~_BV(UART_TX_PIN); // UART mark
  b6:	c0 98       	cbi	0x18, 0	; 24
  b8:	01 c0       	rjmp	.+2      	; 0xbc <__stack+0x1d>
		}
		else {
			UART_TX_PORT |= _BV(UART_TX_PIN); // UART space
  ba:	c0 9a       	sbi	0x18, 0	; 24
		}
		
		DELAY(u16, UART_BIT_DELAY);		
  bc:	27 2f       	mov	r18, r23
  be:	36 2f       	mov	r19, r22
  c0:	21 50       	subi	r18, 0x01	; 1
  c2:	31 09       	sbc	r19, r1
  c4:	21 15       	cp	r18, r1
  c6:	31 05       	cpc	r19, r1
  c8:	d9 f7       	brne	.-10     	; 0xc0 <__stack+0x21>
	uint16_t u16;
	
	UART_TX_PORT |= _BV(UART_TX_PIN); // start bit, UART space
	DELAY(u16, UART_BIT_DELAY);	

	for(i=0; i<8; i++) { // send data bits
  ca:	e4 17       	cp	r30, r20
  cc:	f5 07       	cpc	r31, r21
  ce:	81 f7       	brne	.-32     	; 0xb0 <__stack+0x11>
		}
		
		DELAY(u16, UART_BIT_DELAY);		
	}
	
	UART_TX_PORT &= ~_BV(UART_TX_PIN); // UART mark
  d0:	c0 98       	cbi	0x18, 0	; 24
	DELAY(u16, UART_STOP_DELAY);	// stop bits/idle state
  d2:	89 e0       	ldi	r24, 0x09	; 9
  d4:	92 e0       	ldi	r25, 0x02	; 2
  d6:	01 97       	sbiw	r24, 0x01	; 1
  d8:	00 97       	sbiw	r24, 0x00	; 0
  da:	e9 f7       	brne	.-6      	; 0xd6 <__stack+0x37>
}
  dc:	c8 5f       	subi	r28, 0xF8	; 248
  de:	cd bf       	out	0x3d, r28	; 61
  e0:	df 91       	pop	r29
  e2:	cf 91       	pop	r28
  e4:	08 95       	ret

000000e6 <init>:

void init() {
	uint16_t u16;
	ADMUX = _BV(MUX1); // ADC2 input	
  e6:	82 e0       	ldi	r24, 0x02	; 2
  e8:	87 b9       	out	0x07, r24	; 7
	// ADC auto-trigger, with interrupt enabled, f = 250 kHz
	ADCSRA = _BV(ADEN) | _BV(ADATE) |_BV(ADIE) | _BV(ADPS2) | _BV(ADPS1);
  ea:	9e ea       	ldi	r25, 0xAE	; 174
  ec:	96 b9       	out	0x06, r25	; 6
	// ADC trigger on Compare Match A
	ADCSRB = _BV(ADTS1) | _BV(ADTS0);
  ee:	93 e0       	ldi	r25, 0x03	; 3
  f0:	93 b9       	out	0x03, r25	; 3
	// disable the digital input on ADC2
	DIDR0 = _BV(ADC2D);
  f2:	90 e1       	ldi	r25, 0x10	; 16
  f4:	94 bb       	out	0x14, r25	; 20
	// Timer0, CTC
	TCCR0A = _BV(WGM01);
  f6:	8f bd       	out	0x2f, r24	; 47
	TCCR0B = _BV(CS01); // prescaler=8
  f8:	83 bf       	out	0x33, r24	; 51
	OCR0A = 249; // 16 MHz / 8 / 250 = 8 kHz
  fa:	89 ef       	ldi	r24, 0xF9	; 249
  fc:	86 bf       	out	0x36, r24	; 54
	// UART output pin
	UART_TX_DDR |= _BV(UART_TX_PIN);
  fe:	b8 9a       	sbi	0x17, 0	; 23
	UART_TX_PORT &= ~_BV(UART_TX_PIN); // UART mark, default state
 100:	c0 98       	cbi	0x18, 0	; 24
	DELAY(u16, UART_INIT_DELAY); // keep UART in mark state to initialize properly		
 102:	82 e6       	ldi	r24, 0x62	; 98
 104:	9b ec       	ldi	r25, 0xCB	; 203
 106:	01 97       	sbiw	r24, 0x01	; 1
 108:	00 97       	sbiw	r24, 0x00	; 0
 10a:	e9 f7       	brne	.-6      	; 0x106 <init+0x20>
}
 10c:	08 95       	ret

0000010e <main>:

int main(void)
{	
	wdt_reset();
 10e:	a8 95       	wdr
	acc = 0;
 110:	21 2c       	mov	r2, r1
 112:	31 2c       	mov	r3, r1
	result = 0;
 114:	41 2c       	mov	r4, r1
 116:	51 2c       	mov	r5, r1
	sample_num = 0;
 118:	61 2c       	mov	r6, r1
	new_data = False;
 11a:	71 2c       	mov	r7, r1
	
	init();
 11c:	e4 df       	rcall	.-56     	; 0xe6 <init>
	
	wdt_enable(WDTO_1S);	
 11e:	2e e0       	ldi	r18, 0x0E	; 14
 120:	88 e1       	ldi	r24, 0x18	; 24
 122:	90 e0       	ldi	r25, 0x00	; 0
 124:	0f b6       	in	r0, 0x3f	; 63
 126:	f8 94       	cli
 128:	a8 95       	wdr
 12a:	81 bd       	out	0x21, r24	; 33
 12c:	0f be       	out	0x3f, r0	; 63
 12e:	21 bd       	out	0x21, r18	; 33
	
	// enable interrupts
	sei();
 130:	78 94       	sei
	
	for(;;) {
		if(new_data) {
 132:	77 20       	and	r7, r7
 134:	61 f0       	breq	.+24     	; 0x14e <main+0x40>
			uart_send_byte(result & 0x007F); // send lower byte
 136:	84 2d       	mov	r24, r4
 138:	8f 77       	andi	r24, 0x7F	; 127
 13a:	9c df       	rcall	.-200    	; 0x74 <uart_send_byte>
			uart_send_byte((result >> 7) | 0x80); // MSB is 1, to indicate the higher byte
 13c:	c2 01       	movw	r24, r4
 13e:	88 0f       	add	r24, r24
 140:	89 2f       	mov	r24, r25
 142:	88 1f       	adc	r24, r24
 144:	99 0b       	sbc	r25, r25
 146:	91 95       	neg	r25
 148:	80 68       	ori	r24, 0x80	; 128
 14a:	94 df       	rcall	.-216    	; 0x74 <uart_send_byte>
			new_data = False;
 14c:	71 2c       	mov	r7, r1
		}
		
		wdt_reset();		
 14e:	a8 95       	wdr
	}
 150:	f0 cf       	rjmp	.-32     	; 0x132 <main+0x24>

00000152 <_exit>:
 152:	f8 94       	cli

00000154 <__stop_program>:
 154:	ff cf       	rjmp	.-2      	; 0x154 <__stop_program>
